{
  "_format": "hh-sol-artifact-1",
  "contractName": "Engine",
  "sourceName": "contracts/Engine.sol",
  "abi": [
    {
      "inputs": [
        {
          "internalType": "uint256",
          "name": "number_1",
          "type": "uint256"
        },
        {
          "internalType": "uint256",
          "name": "number_2",
          "type": "uint256"
        }
      ],
      "name": "bitwiseAnd",
      "outputs": [
        {
          "internalType": "uint256",
          "name": "",
          "type": "uint256"
        }
      ],
      "stateMutability": "pure",
      "type": "function"
    }
  ],
  "bytecode": "0x608060405234801561001057600080fd5b5061012f806100206000396000f3fe6080604052348015600f57600080fd5b506004361060285760003560e01c8063643a536614602d575b600080fd5b60436004803603810190603f9190609a565b6057565b604051604e919060e0565b60405180910390f35b6000818316905092915050565b600080fd5b6000819050919050565b607a816069565b8114608457600080fd5b50565b6000813590506094816073565b92915050565b6000806040838503121560ae5760ad6064565b5b600060ba858286016087565b925050602060c9858286016087565b9150509250929050565b60da816069565b82525050565b600060208201905060f3600083018460d3565b9291505056fea264697066735822122075ca6e02bafb0bede0a7aa1ac3957d12d014158e23ccb5b0a06c8d48c3aaa9b364736f6c63430008110033",
  "linkReferences": {},
  "deployedLinkReferences": {}
}