{
  "_format": "hh-sol-artifact-1",
  "contractName": "Engine",
  "sourceName": "contracts/Engine.sol",
  "abi": [
    {
      "inputs": [
        {
          "internalType": "uint256",
          "name": "nb1",
          "type": "uint256"
        },
        {
          "internalType": "uint256",
          "name": "nb2",
          "type": "uint256"
        }
      ],
      "name": "bitwiseOp",
      "outputs": [
        {
          "internalType": "uint256",
          "name": "",
          "type": "uint256"
        }
      ],
      "stateMutability": "pure",
      "type": "function"
    }
  ],
  "bytecode": "0x608060405234801561001057600080fd5b50610134806100206000396000f3fe6080604052348015600f57600080fd5b506004361060285760003560e01c80633bc855b614602d575b600080fd5b60436004803603810190603f9190609f565b6057565b604051604e919060e5565b60405180910390f35b60008082841790508091505092915050565b600080fd5b6000819050919050565b607f81606e565b8114608957600080fd5b50565b6000813590506099816078565b92915050565b6000806040838503121560b35760b26069565b5b600060bf85828601608c565b925050602060ce85828601608c565b9150509250929050565b60df81606e565b82525050565b600060208201905060f8600083018460d8565b9291505056fea26469706673582212205f301e049adc8ab4cf920f3380a756538916ddbd1447cd91b07fa986898a3c8764736f6c63430008110033",
  "linkReferences": {},
  "deployedLinkReferences": {}
}