{"contracts/Game.sol":{"Game":{"abi":[{"inputs":[{"internalType":"uint256","name":"nb1","type":"uint256"},{"internalType":"uint256","name":"nb2","type":"uint256"}],"name":"bitwiseOp","outputs":[{"internalType":"uint256","name":"","type":"uint256"}],"stateMutability":"pure","type":"function"},{"inputs":[{"internalType":"uint256","name":"userInput","type":"uint256"}],"name":"gameResults","outputs":[{"internalType":"bool","name":"result","type":"bool"}],"stateMutability":"nonpayable","type":"function"}],"evm":{"bytecode":{"linkReferences":{},"object":"60806040526000805534801561001457600080fd5b50610461806100246000396000f3fe608060405234801561001057600080fd5b50600436106100365760003560e01c80633bc855b61461003b578063fdba1b7c1461006b575b600080fd5b610055600480360381019061005091906101af565b61009b565b60405161006291906101fe565b60405180910390f35b61008560048036038101906100809190610219565b6100ad565b6040516100929190610261565b60405180910390f35b60008082841790508091505092915050565b60008060008154809291906100c1906102ab565b91905055506000606442336000546040516020016100e19392919061038e565b6040516020818303038152906040528051906020012060001c61010491906103fa565b90506000606442336000546040516020016101219392919061038e565b6040516020818303038152906040528051906020012060001c61014491906103fa565b9050610150828261009b565b6001819055508360015403610168576001925061016d565b600092505b5050919050565b600080fd5b6000819050919050565b61018c81610179565b811461019757600080fd5b50565b6000813590506101a981610183565b92915050565b600080604083850312156101c6576101c5610174565b5b60006101d48582860161019a565b92505060206101e58582860161019a565b9150509250929050565b6101f881610179565b82525050565b600060208201905061021360008301846101ef565b92915050565b60006020828403121561022f5761022e610174565b5b600061023d8482850161019a565b91505092915050565b60008115159050919050565b61025b81610246565b82525050565b60006020820190506102766000830184610252565b92915050565b7f4e487b7100000000000000000000000000000000000000000000000000000000600052601160045260246000fd5b60006102b682610179565b91507fffffffffffffffffffffffffffffffffffffffffffffffffffffffffffffffff82036102e8576102e761027c565b5b600182019050919050565b6000819050919050565b61030e61030982610179565b6102f3565b82525050565b600073ffffffffffffffffffffffffffffffffffffffff82169050919050565b600061033f82610314565b9050919050565b60008160601b9050919050565b600061035e82610346565b9050919050565b600061037082610353565b9050919050565b61038861038382610334565b610365565b82525050565b600061039a82866102fd565b6020820191506103aa8285610377565b6014820191506103ba82846102fd565b602082019150819050949350505050565b7f4e487b7100000000000000000000000000000000000000000000000000000000600052601260045260246000fd5b600061040582610179565b915061041083610179565b9250826104205761041f6103cb565b5b82820690509291505056fea26469706673582212205b281add78af297c8f67c677827c7e179e273c1167952995b8384d8d91c49ea564736f6c63430008110033","opcodes":"PUSH1 0x80 PUSH1 0x40 MSTORE PUSH1 0x0 DUP1 SSTORE CALLVALUE DUP1 ISZERO PUSH2 0x14 JUMPI PUSH1 0x0 DUP1 REVERT JUMPDEST POP PUSH2 0x461 DUP1 PUSH2 0x24 PUSH1 0x0 CODECOPY PUSH1 0x0 RETURN INVALID PUSH1 0x80 PUSH1 0x40 MSTORE CALLVALUE DUP1 ISZERO PUSH2 0x10 JUMPI PUSH1 0x0 DUP1 REVERT JUMPDEST POP PUSH1 0x4 CALLDATASIZE LT PUSH2 0x36 JUMPI PUSH1 0x0 CALLDATALOAD PUSH1 0xE0 SHR DUP1 PUSH4 0x3BC855B6 EQ PUSH2 0x3B JUMPI DUP1 PUSH4 0xFDBA1B7C EQ PUSH2 0x6B JUMPI JUMPDEST PUSH1 0x0 DUP1 REVERT JUMPDEST PUSH2 0x55 PUSH1 0x4 DUP1 CALLDATASIZE SUB DUP2 ADD SWAP1 PUSH2 0x50 SWAP2 SWAP1 PUSH2 0x1AF JUMP JUMPDEST PUSH2 0x9B JUMP JUMPDEST PUSH1 0x40 MLOAD PUSH2 0x62 SWAP2 SWAP1 PUSH2 0x1FE JUMP JUMPDEST PUSH1 0x40 MLOAD DUP1 SWAP2 SUB SWAP1 RETURN JUMPDEST PUSH2 0x85 PUSH1 0x4 DUP1 CALLDATASIZE SUB DUP2 ADD SWAP1 PUSH2 0x80 SWAP2 SWAP1 PUSH2 0x219 JUMP JUMPDEST PUSH2 0xAD JUMP JUMPDEST PUSH1 0x40 MLOAD PUSH2 0x92 SWAP2 SWAP1 PUSH2 0x261 JUMP JUMPDEST PUSH1 0x40 MLOAD DUP1 SWAP2 SUB SWAP1 RETURN JUMPDEST PUSH1 0x0 DUP1 DUP3 DUP5 OR SWAP1 POP DUP1 SWAP2 POP POP SWAP3 SWAP2 POP POP JUMP JUMPDEST PUSH1 0x0 DUP1 PUSH1 0x0 DUP2 SLOAD DUP1 SWAP3 SWAP2 SWAP1 PUSH2 0xC1 SWAP1 PUSH2 0x2AB JUMP JUMPDEST SWAP2 SWAP1 POP SSTORE POP PUSH1 0x0 PUSH1 0x64 TIMESTAMP CALLER PUSH1 0x0 SLOAD PUSH1 0x40 MLOAD PUSH1 0x20 ADD PUSH2 0xE1 SWAP4 SWAP3 SWAP2 SWAP1 PUSH2 0x38E JUMP JUMPDEST PUSH1 0x40 MLOAD PUSH1 0x20 DUP2 DUP4 SUB SUB DUP2 MSTORE SWAP1 PUSH1 0x40 MSTORE DUP1 MLOAD SWAP1 PUSH1 0x20 ADD KECCAK256 PUSH1 0x0 SHR PUSH2 0x104 SWAP2 SWAP1 PUSH2 0x3FA JUMP JUMPDEST SWAP1 POP PUSH1 0x0 PUSH1 0x64 TIMESTAMP CALLER PUSH1 0x0 SLOAD PUSH1 0x40 MLOAD PUSH1 0x20 ADD PUSH2 0x121 SWAP4 SWAP3 SWAP2 SWAP1 PUSH2 0x38E JUMP JUMPDEST PUSH1 0x40 MLOAD PUSH1 0x20 DUP2 DUP4 SUB SUB DUP2 MSTORE SWAP1 PUSH1 0x40 MSTORE DUP1 MLOAD SWAP1 PUSH1 0x20 ADD KECCAK256 PUSH1 0x0 SHR PUSH2 0x144 SWAP2 SWAP1 PUSH2 0x3FA JUMP JUMPDEST SWAP1 POP PUSH2 0x150 DUP3 DUP3 PUSH2 0x9B JUMP JUMPDEST PUSH1 0x1 DUP2 SWAP1 SSTORE POP DUP4 PUSH1 0x1 SLOAD SUB PUSH2 0x168 JUMPI PUSH1 0x1 SWAP3 POP PUSH2 0x16D JUMP JUMPDEST PUSH1 0x0 SWAP3 POP JUMPDEST POP POP SWAP2 SWAP1 POP JUMP JUMPDEST PUSH1 0x0 DUP1 REVERT JUMPDEST PUSH1 0x0 DUP2 SWAP1 POP SWAP2 SWAP1 POP JUMP JUMPDEST PUSH2 0x18C DUP2 PUSH2 0x179 JUMP JUMPDEST DUP2 EQ PUSH2 0x197 JUMPI PUSH1 0x0 DUP1 REVERT JUMPDEST POP JUMP JUMPDEST PUSH1 0x0 DUP2 CALLDATALOAD SWAP1 POP PUSH2 0x1A9 DUP2 PUSH2 0x183 JUMP JUMPDEST SWAP3 SWAP2 POP POP JUMP JUMPDEST PUSH1 0x0 DUP1 PUSH1 0x40 DUP4 DUP6 SUB SLT ISZERO PUSH2 0x1C6 JUMPI PUSH2 0x1C5 PUSH2 0x174 JUMP JUMPDEST JUMPDEST PUSH1 0x0 PUSH2 0x1D4 DUP6 DUP3 DUP7 ADD PUSH2 0x19A JUMP JUMPDEST SWAP3 POP POP PUSH1 0x20 PUSH2 0x1E5 DUP6 DUP3 DUP7 ADD PUSH2 0x19A JUMP JUMPDEST SWAP2 POP POP SWAP3 POP SWAP3 SWAP1 POP JUMP JUMPDEST PUSH2 0x1F8 DUP2 PUSH2 0x179 JUMP JUMPDEST DUP3 MSTORE POP POP JUMP JUMPDEST PUSH1 0x0 PUSH1 0x20 DUP3 ADD SWAP1 POP PUSH2 0x213 PUSH1 0x0 DUP4 ADD DUP5 PUSH2 0x1EF JUMP JUMPDEST SWAP3 SWAP2 POP POP JUMP JUMPDEST PUSH1 0x0 PUSH1 0x20 DUP3 DUP5 SUB SLT ISZERO PUSH2 0x22F JUMPI PUSH2 0x22E PUSH2 0x174 JUMP JUMPDEST JUMPDEST PUSH1 0x0 PUSH2 0x23D DUP5 DUP3 DUP6 ADD PUSH2 0x19A JUMP JUMPDEST SWAP2 POP POP SWAP3 SWAP2 POP POP JUMP JUMPDEST PUSH1 0x0 DUP2 ISZERO ISZERO SWAP1 POP SWAP2 SWAP1 POP JUMP JUMPDEST PUSH2 0x25B DUP2 PUSH2 0x246 JUMP JUMPDEST DUP3 MSTORE POP POP JUMP JUMPDEST PUSH1 0x0 PUSH1 0x20 DUP3 ADD SWAP1 POP PUSH2 0x276 PUSH1 0x0 DUP4 ADD DUP5 PUSH2 0x252 JUMP JUMPDEST SWAP3 SWAP2 POP POP JUMP JUMPDEST PUSH32 0x4E487B7100000000000000000000000000000000000000000000000000000000 PUSH1 0x0 MSTORE PUSH1 0x11 PUSH1 0x4 MSTORE PUSH1 0x24 PUSH1 0x0 REVERT JUMPDEST PUSH1 0x0 PUSH2 0x2B6 DUP3 PUSH2 0x179 JUMP JUMPDEST SWAP2 POP PUSH32 0xFFFFFFFFFFFFFFFFFFFFFFFFFFFFFFFFFFFFFFFFFFFFFFFFFFFFFFFFFFFFFFFF DUP3 SUB PUSH2 0x2E8 JUMPI PUSH2 0x2E7 PUSH2 0x27C JUMP JUMPDEST JUMPDEST PUSH1 0x1 DUP3 ADD SWAP1 POP SWAP2 SWAP1 POP JUMP JUMPDEST PUSH1 0x0 DUP2 SWAP1 POP SWAP2 SWAP1 POP JUMP JUMPDEST PUSH2 0x30E PUSH2 0x309 DUP3 PUSH2 0x179 JUMP JUMPDEST PUSH2 0x2F3 JUMP JUMPDEST DUP3 MSTORE POP POP JUMP JUMPDEST PUSH1 0x0 PUSH20 0xFFFFFFFFFFFFFFFFFFFFFFFFFFFFFFFFFFFFFFFF DUP3 AND SWAP1 POP SWAP2 SWAP1 POP JUMP JUMPDEST PUSH1 0x0 PUSH2 0x33F DUP3 PUSH2 0x314 JUMP JUMPDEST SWAP1 POP SWAP2 SWAP1 POP JUMP JUMPDEST PUSH1 0x0 DUP2 PUSH1 0x60 SHL SWAP1 POP SWAP2 SWAP1 POP JUMP JUMPDEST PUSH1 0x0 PUSH2 0x35E DUP3 PUSH2 0x346 JUMP JUMPDEST SWAP1 POP SWAP2 SWAP1 POP JUMP JUMPDEST PUSH1 0x0 PUSH2 0x370 DUP3 PUSH2 0x353 JUMP JUMPDEST SWAP1 POP SWAP2 SWAP1 POP JUMP JUMPDEST PUSH2 0x388 PUSH2 0x383 DUP3 PUSH2 0x334 JUMP JUMPDEST PUSH2 0x365 JUMP JUMPDEST DUP3 MSTORE POP POP JUMP JUMPDEST PUSH1 0x0 PUSH2 0x39A DUP3 DUP7 PUSH2 0x2FD JUMP JUMPDEST PUSH1 0x20 DUP3 ADD SWAP2 POP PUSH2 0x3AA DUP3 DUP6 PUSH2 0x377 JUMP JUMPDEST PUSH1 0x14 DUP3 ADD SWAP2 POP PUSH2 0x3BA DUP3 DUP5 PUSH2 0x2FD JUMP JUMPDEST PUSH1 0x20 DUP3 ADD SWAP2 POP DUP2 SWAP1 POP SWAP5 SWAP4 POP POP POP POP JUMP JUMPDEST PUSH32 0x4E487B7100000000000000000000000000000000000000000000000000000000 PUSH1 0x0 MSTORE PUSH1 0x12 PUSH1 0x4 MSTORE PUSH1 0x24 PUSH1 0x0 REVERT JUMPDEST PUSH1 0x0 PUSH2 0x405 DUP3 PUSH2 0x179 JUMP JUMPDEST SWAP2 POP PUSH2 0x410 DUP4 PUSH2 0x179 JUMP JUMPDEST SWAP3 POP DUP3 PUSH2 0x420 JUMPI PUSH2 0x41F PUSH2 0x3CB JUMP JUMPDEST JUMPDEST DUP3 DUP3 MOD SWAP1 POP SWAP3 SWAP2 POP POP JUMP INVALID LOG2 PUSH5 0x6970667358 0x22 SLT KECCAK256 JUMPDEST 0x28 BYTE 0xDD PUSH25 0xAF297C8F67C677827C7E179E273C1167952995B8384D8D91C4 SWAP15 0xA5 PUSH5 0x736F6C6343 STOP ADDMOD GT STOP CALLER "},"methodIdentifiers":{"bitwiseOp(uint256,uint256)":"3bc855b6","gameResults(uint256)":"fdba1b7c"}}}}}