{"contracts/Engine.sol":{"Engine":{"abi":[{"inputs":[{"internalType":"uint256","name":"nb1","type":"uint256"},{"internalType":"uint256","name":"nb2","type":"uint256"}],"name":"bitwiseOp","outputs":[{"internalType":"uint256","name":"","type":"uint256"}],"stateMutability":"pure","type":"function"}],"evm":{"bytecode":{"linkReferences":{},"object":"608060405234801561001057600080fd5b50610134806100206000396000f3fe6080604052348015600f57600080fd5b506004361060285760003560e01c80633bc855b614602d575b600080fd5b60436004803603810190603f9190609f565b6057565b604051604e919060e5565b60405180910390f35b60008082841790508091505092915050565b600080fd5b6000819050919050565b607f81606e565b8114608957600080fd5b50565b6000813590506099816078565b92915050565b6000806040838503121560b35760b26069565b5b600060bf85828601608c565b925050602060ce85828601608c565b9150509250929050565b60df81606e565b82525050565b600060208201905060f8600083018460d8565b9291505056fea26469706673582212205f301e049adc8ab4cf920f3380a756538916ddbd1447cd91b07fa986898a3c8764736f6c63430008110033","opcodes":"PUSH1 0x80 PUSH1 0x40 MSTORE CALLVALUE DUP1 ISZERO PUSH2 0x10 JUMPI PUSH1 0x0 DUP1 REVERT JUMPDEST POP PUSH2 0x134 DUP1 PUSH2 0x20 PUSH1 0x0 CODECOPY PUSH1 0x0 RETURN INVALID PUSH1 0x80 PUSH1 0x40 MSTORE CALLVALUE DUP1 ISZERO PUSH1 0xF JUMPI PUSH1 0x0 DUP1 REVERT JUMPDEST POP PUSH1 0x4 CALLDATASIZE LT PUSH1 0x28 JUMPI PUSH1 0x0 CALLDATALOAD PUSH1 0xE0 SHR DUP1 PUSH4 0x3BC855B6 EQ PUSH1 0x2D JUMPI JUMPDEST PUSH1 0x0 DUP1 REVERT JUMPDEST PUSH1 0x43 PUSH1 0x4 DUP1 CALLDATASIZE SUB DUP2 ADD SWAP1 PUSH1 0x3F SWAP2 SWAP1 PUSH1 0x9F JUMP JUMPDEST PUSH1 0x57 JUMP JUMPDEST PUSH1 0x40 MLOAD PUSH1 0x4E SWAP2 SWAP1 PUSH1 0xE5 JUMP JUMPDEST PUSH1 0x40 MLOAD DUP1 SWAP2 SUB SWAP1 RETURN JUMPDEST PUSH1 0x0 DUP1 DUP3 DUP5 OR SWAP1 POP DUP1 SWAP2 POP POP SWAP3 SWAP2 POP POP JUMP JUMPDEST PUSH1 0x0 DUP1 REVERT JUMPDEST PUSH1 0x0 DUP2 SWAP1 POP SWAP2 SWAP1 POP JUMP JUMPDEST PUSH1 0x7F DUP2 PUSH1 0x6E JUMP JUMPDEST DUP2 EQ PUSH1 0x89 JUMPI PUSH1 0x0 DUP1 REVERT JUMPDEST POP JUMP JUMPDEST PUSH1 0x0 DUP2 CALLDATALOAD SWAP1 POP PUSH1 0x99 DUP2 PUSH1 0x78 JUMP JUMPDEST SWAP3 SWAP2 POP POP JUMP JUMPDEST PUSH1 0x0 DUP1 PUSH1 0x40 DUP4 DUP6 SUB SLT ISZERO PUSH1 0xB3 JUMPI PUSH1 0xB2 PUSH1 0x69 JUMP JUMPDEST JUMPDEST PUSH1 0x0 PUSH1 0xBF DUP6 DUP3 DUP7 ADD PUSH1 0x8C JUMP JUMPDEST SWAP3 POP POP PUSH1 0x20 PUSH1 0xCE DUP6 DUP3 DUP7 ADD PUSH1 0x8C JUMP JUMPDEST SWAP2 POP POP SWAP3 POP SWAP3 SWAP1 POP JUMP JUMPDEST PUSH1 0xDF DUP2 PUSH1 0x6E JUMP JUMPDEST DUP3 MSTORE POP POP JUMP JUMPDEST PUSH1 0x0 PUSH1 0x20 DUP3 ADD SWAP1 POP PUSH1 0xF8 PUSH1 0x0 DUP4 ADD DUP5 PUSH1 0xD8 JUMP JUMPDEST SWAP3 SWAP2 POP POP JUMP INVALID LOG2 PUSH5 0x6970667358 0x22 SLT KECCAK256 0x5F ADDRESS 0x1E DIV SWAP11 0xDC DUP11 0xB4 0xCF SWAP3 0xF CALLER DUP1 0xA7 JUMP MSTORE8 DUP10 AND 0xDD 0xBD EQ SELFBALANCE 0xCD SWAP2 0xB0 PUSH32 0xA986898A3C8764736F6C63430008110033000000000000000000000000000000 "},"methodIdentifiers":{"bitwiseOp(uint256,uint256)":"3bc855b6"}}}}}