{
  "_format": "hh-sol-artifact-1",
  "contractName": "Game",
  "sourceName": "contracts/Game.sol",
  "abi": [
    {
      "inputs": [
        {
          "internalType": "uint256",
          "name": "nb1",
          "type": "uint256"
        },
        {
          "internalType": "uint256",
          "name": "nb2",
          "type": "uint256"
        }
      ],
      "name": "bitwiseOp",
      "outputs": [
        {
          "internalType": "uint256",
          "name": "",
          "type": "uint256"
        }
      ],
      "stateMutability": "pure",
      "type": "function"
    },
    {
      "inputs": [
        {
          "internalType": "uint256",
          "name": "userInput",
          "type": "uint256"
        }
      ],
      "name": "gameResults",
      "outputs": [
        {
          "internalType": "bool",
          "name": "result",
          "type": "bool"
        }
      ],
      "stateMutability": "nonpayable",
      "type": "function"
    }
  ],
  "bytecode": "0x60806040526000805534801561001457600080fd5b50610461806100246000396000f3fe608060405234801561001057600080fd5b50600436106100365760003560e01c80633bc855b61461003b578063fdba1b7c1461006b575b600080fd5b610055600480360381019061005091906101af565b61009b565b60405161006291906101fe565b60405180910390f35b61008560048036038101906100809190610219565b6100ad565b6040516100929190610261565b60405180910390f35b60008082841790508091505092915050565b60008060008154809291906100c1906102ab565b91905055506000606442336000546040516020016100e19392919061038e565b6040516020818303038152906040528051906020012060001c61010491906103fa565b90506000606442336000546040516020016101219392919061038e565b6040516020818303038152906040528051906020012060001c61014491906103fa565b9050610150828261009b565b6001819055508360015403610168576001925061016d565b600092505b5050919050565b600080fd5b6000819050919050565b61018c81610179565b811461019757600080fd5b50565b6000813590506101a981610183565b92915050565b600080604083850312156101c6576101c5610174565b5b60006101d48582860161019a565b92505060206101e58582860161019a565b9150509250929050565b6101f881610179565b82525050565b600060208201905061021360008301846101ef565b92915050565b60006020828403121561022f5761022e610174565b5b600061023d8482850161019a565b91505092915050565b60008115159050919050565b61025b81610246565b82525050565b60006020820190506102766000830184610252565b92915050565b7f4e487b7100000000000000000000000000000000000000000000000000000000600052601160045260246000fd5b60006102b682610179565b91507fffffffffffffffffffffffffffffffffffffffffffffffffffffffffffffffff82036102e8576102e761027c565b5b600182019050919050565b6000819050919050565b61030e61030982610179565b6102f3565b82525050565b600073ffffffffffffffffffffffffffffffffffffffff82169050919050565b600061033f82610314565b9050919050565b60008160601b9050919050565b600061035e82610346565b9050919050565b600061037082610353565b9050919050565b61038861038382610334565b610365565b82525050565b600061039a82866102fd565b6020820191506103aa8285610377565b6014820191506103ba82846102fd565b602082019150819050949350505050565b7f4e487b7100000000000000000000000000000000000000000000000000000000600052601260045260246000fd5b600061040582610179565b915061041083610179565b9250826104205761041f6103cb565b5b82820690509291505056fea26469706673582212205b281add78af297c8f67c677827c7e179e273c1167952995b8384d8d91c49ea564736f6c63430008110033",
  "linkReferences": {},
  "deployedLinkReferences": {}
}