{
  "_format": "hh-sol-artifact-1",
  "contractName": "Game",
  "sourceName": "contracts/Game.sol",
  "abi": [
    {
      "inputs": [
        {
          "internalType": "uint256",
          "name": "number_1",
          "type": "uint256"
        },
        {
          "internalType": "uint256",
          "name": "number_2",
          "type": "uint256"
        }
      ],
      "name": "bitwiseAnd",
      "outputs": [
        {
          "internalType": "uint256",
          "name": "",
          "type": "uint256"
        }
      ],
      "stateMutability": "pure",
      "type": "function"
    },
    {
      "inputs": [
        {
          "internalType": "uint256",
          "name": "userGuess",
          "type": "uint256"
        }
      ],
      "name": "play",
      "outputs": [
        {
          "internalType": "bool",
          "name": "",
          "type": "bool"
        }
      ],
      "stateMutability": "view",
      "type": "function"
    }
  ],
  "bytecode": "0x608060405234801561001057600080fd5b50610353806100206000396000f3fe608060405234801561001057600080fd5b50600436106100365760003560e01c8063643a53661461003b5780636898f82b1461006b575b600080fd5b61005560048036038101906100509190610188565b61009b565b60405161006291906101d7565b60405180910390f35b610085600480360381019061008091906101f2565b6100a8565b604051610092919061023a565b60405180910390f35b6000818316905092915050565b6000806003426040516020016100be9190610276565b6040516020818303038152906040528051906020012060001c6100e191906102c0565b90506000600342836040516020016100fa9291906102f1565b6040516020818303038152906040528051906020012060001c61011d91906102c0565b9050600061012b838361009b565b90508481036101405760019350505050610148565b600093505050505b919050565b600080fd5b6000819050919050565b61016581610152565b811461017057600080fd5b50565b6000813590506101828161015c565b92915050565b6000806040838503121561019f5761019e61014d565b5b60006101ad85828601610173565b92505060206101be85828601610173565b9150509250929050565b6101d181610152565b82525050565b60006020820190506101ec60008301846101c8565b92915050565b6000602082840312156102085761020761014d565b5b600061021684828501610173565b91505092915050565b60008115159050919050565b6102348161021f565b82525050565b600060208201905061024f600083018461022b565b92915050565b6000819050919050565b61027061026b82610152565b610255565b82525050565b6000610282828461025f565b60208201915081905092915050565b7f4e487b7100000000000000000000000000000000000000000000000000000000600052601260045260246000fd5b60006102cb82610152565b91506102d683610152565b9250826102e6576102e5610291565b5b828206905092915050565b60006102fd828561025f565b60208201915061030d828461025f565b602082019150819050939250505056fea2646970667358221220b18ae642d04663f48266b1a9419f852929e29a4677d53a782dfe160f6af5032b64736f6c63430008110033",
  "linkReferences": {},
  "deployedLinkReferences": {}
}